:020000040800F2
:1000000000000520FD4800084D4900084D49000842
:100010004D4900084D4900084D4900080000000006
:100020000000000000000000000000004D49000832
:100030004D490008000000004D490008E13E00085D
:100040004D4900084D4900084D4900084D49000838
:100050004D4900084D4900084D4900084D49000828
:10006000053F00080D3F00084D4900084D490008B4
:100070004D4900084D4900084D4900084D49000808
:100080004D4900084D4900084D4900084D490008F8
:100090004D4900084D4900084D490008153F00082A
:1000A0004D4900084D4900084D4900084D490008D8
:1000B0004D4900084D4900084D4900084D490008C8
:1000C0004D4900084D4900084D4900084D490008B8
:1000D0004D4900084D4900084D4900084D490008A8
:1000E0004D4900084D4900084D4900084D49000898
:1000F0004D4900084D4900084D4900084D49000888
:100100004D4900084D4900084D4900084D49000877
:100110004D4900084D4900084D4900084D49000867
:100120004D4900084D4900084D4900084D49000857
:100130004D4900084D4900084D4900084D49000847
:100140004D4900084D4900084D4900084D49000837
:100150004D4900084D4900084D4900084D49000827
:100160004D4900084D4900084D4900084D49000817
:100170004D4900084D4900084D49000800000000A5
:100180004D4900084D4900084D4900084D490008F7
:100190004D4900084D4900084D4900084D490008E7
:1001A0004D4900084D4900084D4900084D490008D7
:1001B0004D4900084D4900084D4900084D490008C7
:0801C0004D4900084D490008FB
:1001D00010B5054C237833B9044B13B10448AFF381
:1001E00000800123237010BD740000200000000077
:1001F000E069000808B5034B1BB103490348AFF39E
:10020000008008BD0000000078000020E0690008C0
:1002100001F0FF01102A2BDB10F0070F08D010F8B7
:10022000013B013A8B422DD010F0070F42B3F6D1BB
:10023000F0B441EA012141EA014122F007047FF0D4
:1002400000070023F0E80256083C85EA010586EA2B
:10025000010685FA47F5A3FA87F586FA47F6A5FA67
:1002600087F68EB9EED1F0BC01F0FF0102F0070273
:1002700032B110F8013B013A83EA010313B1F8D11E
:100280000020704701387047002D06BF35460338FF
:10029000073815F0010F07D1013015F4807F02BF38
:1002A000013015F4C03F0130F0BC0138704700BF89
:1002B000034613F8012B002AFBD1181A01387047A6
:1002C00053B94AB9002908BF00281CBF4FF0FF31BD
:1002D0004FF0FF3000F072B9ADF1080C6DE904CEBB
:1002E00000F006F8DDF804E0DDE9022304B0704711
:1002F0002DE9F047089E04468846002B4BD18A42E0
:10030000154667D9B2FA82F24AB1C2F1200701FA62
:1003100002F320FA07F7954047EA030894404FEAB2
:10032000154E230CB8FBFEF71FFA85FC0EFB178851
:1003300043EA084307FB0CF1994209D9EB1807F18E
:10034000FF3080F01B81994240F21881023F2B441C
:100350005B1AA4B2B3FBFEF00EFB103344EA034475
:1003600000FB0CFCA44509D92C1900F1FF3380F0E7
:100370000781A44540F2048102382C4440EA07403A
:10038000A4EB0C0400271EB1D4400023C6E90043AF
:100390003946BDE8F0878B4209D9002E00F0EB808A
:1003A0000027C6E9000138463946BDE8F087B3FAB0
:1003B00083F7002F47D18B4202D3824200F2FA80AA
:1003C000841A61EB030301209846002EE0D0C6E9B1
:1003D0000048DDE702B9FFDEB2FA82F2002A40F0FF
:1003E0008F80491B4FEA154E1FFA85F80127B1FB94
:1003F000FEFC230C0EFB1C1143EA014308FB0CF12D
:10040000994207D9EB180CF1FF3002D2994200F261
:10041000CD808446591AA3B2B1FBFEF00EFB101436
:1004200043EA044408FB00F8A04507D92C1900F161
:10043000FF3302D2A04500F2B6801846A4EB0804B0
:1004400040EA0C409FE7C7F1200CBB4022FA0CFEAB
:100450004EEA030E01FA07F420FA0CF521FA0CF328
:100460004FEA1E482543B3FBF8F92C0C08FB19335F
:100470001FFA8EFA44EA034309FB0AF49C4202FA8B
:1004800007F200FA07F10BD91EEB030309F1FF3065
:1004900080F087809C4240F28480A9F10209734475
:1004A0001B1BADB2B3FBF8F008FB103345EA034465
:1004B00000FB0AFAA24508D91EEB040400F1FF3341
:1004C0006BD2A24569D90238744440EA0940A0FBC6
:1004D0000289A4EB0A044C45C2464B4654D351D082
:1004E000002E69D0B1EB0A0564EB030404FA0CFC9E
:1004F000FD40FC404CEA0505C6E90054002747E7EB
:10050000C2F1200320FA03F7954001FA02F021FA24
:1005100003F34FEA154E3843010CB3FBFEF71FFA05
:1005200085F80EFB173341EA034107FB08F38B42C2
:1005300004FA02F407D9691807F1FF3C2FD28B4265
:100540002DD9023F2944CB1A81B2B3FBFEF00EFB3A
:10055000103341EA034100FB08F38B4207D96918C5
:1005600000F1FF3C17D28B4215D902382944C91A31
:1005700040EA07473BE73746304609E70746E7E6E4
:100580001846FBE64145ABD2B8EB020A69EB0E0216
:1005900001381346A4E76046E9E7184695E7674641
:1005A000D1E781467CE702382C4447E7ACF1020CE6
:1005B0002B442FE7384608E73746E9E6704700BF87
:1005C00038B50D4C4FF47A730C490546227808680B
:1005D000B3FBF2F3B0FBF3F000F0F2F908B90F2D22
:1005E00001D9012038BD002229464FF0FF3000F02C
:1005F000A3F96560002038BD00000020080000203D
:1006000008B5032000F084F90020FFF7D9FF03F0BC
:1006100069F9002008BD00BF034A044B11681B782C
:100620000B441360704700BF7403002000000020DB
:10063000014B1868704700BF74030020002800F0C9
:100640009280F8B5056C0446002D00F08280236C82
:10065000DB0604D50023012084F83C30F8BD236C70
:100660004E4A4F491A4023684E4D42F0020222641E
:100670004A6822F440324A604A68606802434A602D
:100680005A68216922F48072D4F808C0E7685A6079
:100690005868A66A40EA0120AE425860586820F0C7
:1006A00040705860596841EA0C015960996821F41A
:1006B000006199609A6842EA07029A6055D0996889
:1006C000E06A21F0706199609A6816439E609968AB
:1006D00021F0405199609A6802439A609968A5692F
:1006E00021F0020194F8200099609A6842EA4502DC
:1006F0009A60002842D15A6822F400625A60D86A8F
:100700000026E56920F4700094F830C06A1E67691D
:10071000D8623046DD6A45EA0255DD629D6825F4FF
:1007200000759D60996841EA4C219960996821F4AF
:10073000806199609A6842EA87229A606664236CB5
:1007400023F0030343F001032364002384F83C30C7
:10075000F8BD03F0DFF86564236C84F83C50DB06D9
:100760003FF578AF7BE7012070479A6822F070620E
:100770009A609A6822F040529A60AFE75868626ABD
:1007800040F40060511E58605A6822F460425A607A
:100790005A6842EA41325A60B1E700BFFDEEFFFFFE
:1007A000002301400100000F90F83C300022F0B51A
:1007B000012B83B0019200F09A800D68012203683A
:1007C000092D80F83C20AFB28A6828D805EB450691
:1007D0004FF0070C1C690CFA06FC02FA06F624EA34
:1007E0000C041C611A6916431E614E68062E06EB46
:1007F00086022DD8053A1F24596B944007FA02F25D
:1008000021EA04015963596B0A435A633C4A9342F3
:1008100030D0002380F83C30184603B0F0BD07EB21
:1008200047064FF0070CDC681E3EDFF8D8E00CFAF4
:1008300006FC754524EA0C04DC605BD002FA06F67F
:10084000DA681643DE604E68062E06EB8602D1D9C2
:100850000C2E37D8A2F123041F26196BA64007FAE5
:1008600004F221EA060119631C6B1443244A9342E3
:100870001C63CED1122D33D0224B9D4201D0112DBD
:10088000C7D1214A1F4953688D4243F40003536086
:10089000BFD102F146721D4B02F52E321B6802F2E7
:1008A0008332A2FB03239B0C03EB83035B000193C6
:1008B000019B002BADD0019B013B0193019B002BC1
:1008C000F9D1A6E7A2F141011F26DC6A8E4007FAA2
:1008D00001F224EA0604DC62D96A0A43DA6295E787
:1008E000D2F8043343F48003C2F8043391E70220C2
:1008F00003B0F0BDDE6846EA0266DE6075E700BF61
:1009000000200140120000100023014008000020D8
:1009100007490002074BCA6800F4E06010B44FF6C4
:10092000FF0422405DF8044B13431843C86070472E
:1009300000ED00E00000FA05174BDB68C3F302236B
:1009400030B4C3F107051C1D042D28BF0425062C57
:1009500018D9033B4FF0FF349C4022EA04044FF0C7
:10096000FF32002802FA05F221EA020101FA03F23D
:1009700042EA04024FEA0212D2B206DB074B1A54D3
:1009800030BC704700242346E9E700F00F00044B19
:100990001A5430BC704700BF00ED00E000E400E0F6
:1009A00014ED00E0002807DB00F01F0101234009DF
:1009B000024A8B4042F82030704700BF00E100E05F
:1009C0000138B0F1807F0DD2074B0022072130B4EF
:1009D000F025064C5860104684F823509A60196040
:1009E00030BC70470120704710E000E000ED00E0EF
:1009F000002844D0F8B590F835300446002B3BD0A1
:100A0000626802256369E168102A43EA02032069EB
:100A1000A66943EA0103A16884F8355043EA00035C
:100A200043EA0103A16AD4E9085043EA06032668B1
:100A300043EA05033768E56A43EA0003206B43EAAB
:100A40000103104943EA050301EA070143EA0003F1
:100A50003160316843EA010333600AD0F368002251
:100A6000012143F01E031046F360E26484F8351060
:100A7000F8BDE369B361F1E702F092FFC0E701203E
:100A8000704700BF07F0E0FFF0B490F83440012C4D
:100A900038D0012590F83540866DAC4280F834504E
:100AA00029D104680227002580F8357045658768DC
:100AB0002568402F25F480252560636026D0A1603D
:100AC000E260C16D3F23026C8B40B360236843F04A
:100AD00016032360636943F0800363611AB12368DE
:100AE00043F0080323602268002342F00102184605
:100AF0002260F0BC70470022022380F834201846A0
:100B0000F0BC70470223F0BC18467047A260E16059
:100B1000D7E700BF2DE9F04FDFF82CC283B08E4637
:100B20000025DFF82892D1F8008003E00135102D70
:100B300000F0B6800123AB4008EA03018B42F5D1F7
:100B4000DEF8044024F01007022F40F0AC80EF08DC
:100B500005F0070A4FF00F0BDEF8102000EB8707B7
:100B60004FEA8A0A3E6A0BFA0AFB02FA0AF24FEAD5
:100B7000450A26EA0B064FF0030B32430BFA0AFB39
:100B800004F003063A626FEA0B02076806FA0AF6F7
:100B900017403E4306608668C4F3001706EA020B5E
:100BA000DEF80C60AF4006FA0AF646EA0B068660ED
:100BB000466826EA03031F434760C668E700DEF87D
:100BC000083002EA060203FA0AF343EA0203C360AA
:100BD000ACD5D9F8446025F0030705F003030F22D4
:100BE00046F4804607F180479B00C9F8446007F54A
:100BF0009C37D9F8446002FA03FA06F4804601965D
:100C0000484E019AB042BA6822EA0A0220D006F59C
:100C10008066B0425ED0444EB04260D0434EB04297
:100C200062D0434EB04264D0424EB0426BD0424E8E
:100C3000B0426DD0414EB04260D0414EB0426CD017
:100C4000404EB0420CBF09260A2606FA03F31A43A7
:100C5000BA60E603DCF800306FEA010205F1010535
:100C600054BF13400B43A703CCF80030DCF804302A
:100C700054BF13400B43E602CCF80430DCF80830D4
:100C800054BF13400B43A402CCF80830DCF80C30FE
:100C900054BF13400B43102DCCF80C307FF44AAFF7
:100CA00003B0BDE8F08F4FEA450A0322D0F800B048
:100CB000013F04EA020602FA0AF2012F6FEA020279
:100CC00006FA0AF602EA0B0B46EA0B0606603FF646
:100CD00074AF60E7012606FA03F31A43B8E7022669
:100CE00006FA03F31A43B3E7032606FA03F31A439B
:100CF000AEE7042606FA03F31A43A9E7072606FA25
:100D000003F31A43A4E7052606FA03F31A439FE701
:100D1000062606FA03F31A439AE7082606FA03F3AF
:100D20001A4395E70000024000080240000C024010
:100D3000001002400014024000180240001C024053
:100D40000020024000240240003C014000380240E4
:100D50000369194214BF01200020704702B9090439
:100D600081617047044A5169014200D1704708B55A
:100D7000506102F035F808BD003C014000284DD01C
:100D8000F8B590F84130044603F0FF02002B40D044
:100D90002421E568D4E9003284F84110012D186857
:100DA00022F07061A26820F0010018601961996852
:100DB00021F40041996028D042F40442022D9A6047
:100DC00002D14FF400625A605A680021144820276B
:100DD000A6691043D4E9042558602A43D868E56918
:100DE00042EA0622266A20F400403543D8600846CD
:100DF000DA601D601A6842F001021A60616484F8CA
:100E00004170216384F84210F8BD42F400429A60B8
:100E1000DAE780F8402002F04DFEB9E70120704784
:100E20000080000290F84130DBB2202B70B41FD15B
:100E300090F84020012A1BD002682424002680F864
:100E400041401568344625F001051560156825F404
:100E500080551560156829431160116841F0010142
:100E6000116080F8406080F84130204670BC7047C7
:100E70000224204670BC704790F84130DBB2202B32
:100E800070B41ED190F84020012A1AD002682424A0
:100E9000002680F841401468354624F001041460AF
:100EA000146824F4706444EA01211160116841F06F
:100EB0000101116080F8406080F84130284670BC24
:100EC00070470225284670BC704700BF024A13686D
:100ED00043F4807313607047007000402DE9F843BD
:100EE000089D80460F4616469946D8F8004001E016
:100EF0006B1C09D1A068384214BF01200020B04209
:100F0000F6D10020BDE8F8832DB1FFF791FBA0EBEF
:100F10000900A842E9D90423012088F84130D8F813
:100F200044300343C8F84430ECE700BFF0B5044652
:100F300083B0FFF77DFB002C45D094F84030012BA7
:100F40004ED00123054684F8403094F8412002F049
:100F5000FF03002A3AD0A76C26682B46A16800221E
:100F60003568481E202125F4F85545EA002520461D
:100F700035600097FFF7B2FF00BBE3680125D4E9B5
:100F800007261343D4E900123343174E0F6843EA90
:100F9000026362693E40A7693343144E0B6042EA24
:100FA00007034F6822693E4043EA024333434B60E4
:100FB0000B682B430B60606484F84150002384F875
:100FC000403003B0F0BD012003B0F0BD84F84030E4
:100FD000204602F0D1FD41F288331F46A364BBE7EF
:100FE000022003B0F0BD00BF2FFFFF00FEF8E0FFBE
:100FF000002800F0348103682DE9F041DD0782B05C
:10100000044635D5AB498A6802F00C02042A00F088
:10101000FE808A6802F00C02082A00F0F4806368FF
:10102000B3F5803F10D0002B00F01B81B3F5A02F4B
:10103000A04B1A6800F0628122F480321A601A68AC
:1010400022F480221A6004E09A4A136843F4803341
:101050001360FFF7EDFA974D064605E0FFF7E8FA53
:10106000801B642800F2EE802B689A03F6D5236873
:101070009F0742D41A0717D56369002B00F0B08090
:101080008C4B5A6F1D4642F001025A67FFF7D0FAA7
:10109000064605E0FFF7CCFA801B022800F2D2805A
:1010A0006B6F9B07F6D523685D076BD5814B1A6C78
:1010B000D00000F1ED801A6C012542F080521A64D4
:1010C0001B6C03F080530193019B7B4B1A68D10585
:1010D00040F1A780A368012B39D0002B00F0DA8003
:1010E000052B744B1A6F00F0118122F001021A6770
:1010F0001A6F22F004021A672EE06E4A916811F00E
:101100000C0F62D0916801F00C0108295AD0E368F5
:10111000002B00F0DF80674B1A681D4642F0010289
:101120001A60FFF785FA064605E0FFF781FA801B93
:10113000022800F287802B689807F6D52B68226971
:1011400023F0F80343EAC2032B60236892E7594A6D
:10115000136F43F001031367FFF76AFA554E804699
:1011600041F2883705E0FFF763FAA0EB0800B842C8
:1011700068D8336F9B07F6D525B14E4A136C23F020
:1011800080531364A369CBB14A4A916801F00C0102
:10119000082921D0022B136800F0C08023F080734F
:1011A00014461360FFF744FA054604E0FFF740FADF
:1011B000401B022846D823689B01F7D4002002B0C8
:1011C000BDE8F08152685602A1D43A4A12689507E8
:1011D0003CD5E268012A39D0012002B0BDE8F08197
:1011E000344B5A6F1D4622F001025A67FFF720FA6E
:1011F000064604E0FFF71CFA801B022822D86B6F1A
:101200009F07F7D44FE74A6850027FF508AF294A95
:10121000126891037FF52CAF6268002A7FF428AF33
:10122000DAE71A681E4642F480721A60FFF700FA85
:1012300007463368DA053FF54DAFFFF7F9F9C01BF4
:101240006428F6D9032002B0BDE8F081194920696D
:101250000A6822F0F80242EAC0020A600AE70120A6
:101260007047144B1A681D4622F480321A601A68BF
:1012700022F480221A60FFF7DBF9064604E0FFF74C
:10128000D7F9801B6428DDD82B689B03F7D4EEE6E2
:1012900000251AE7074B41F288381A6F1E4622F0E4
:1012A00001021A671A6F22F004021A67FFF7C0F9E9
:1012B000074608E00038024000700040FFF7B8F928
:1012C000C01B4045BED8336F9807F7D4002D3FF4BC
:1012D00059AF52E72B4B1A681D4622F001021A60E3
:1012E000FFF7A6F9064604E0FFF7A2F9801B0228E3
:1012F000A8D82B689907F7D42368BBE642F480226C
:101300001A601A6842F480321A60A2E642F00402BF
:101310001A671A6F42F001021A671DE723F0807303
:1013200015461360FFF784F9064604E0FFF780F9DD
:10133000801B022886D82B689901F7D4D4E907329C
:10134000606A1343D4E90A2143F000530D4C52085C
:1013500043EA8013013A43EA016343EA02436B60C4
:101360002B6843F080732B60FFF762F9054605E0B8
:10137000FFF75EF9401B02283FF664AF23689A012D
:10138000F6D51BE700380240164908B58B6803F014
:101390000C03042B1BD0082B17D14A684B6802F0B2
:1013A0003F02496813F4800313D10F48C1F3881139
:1013B000A1FB0001FEF784FF0A4B5B68C3F3014306
:1013C00001335B00B0FBF3F008BD074808BD0748D8
:1013D00008BD0648C1F388110023A1FB0001FEF7F8
:1013E0006FFFE9E7003802400024F40040787D01F7
:1013F00078B14A4A136803F00F038B420BD213688B
:1014000023F00F030B431360136803F00F038B42A9
:1014100001D00120704703682DE9F0419D0714D5E4
:101420005C0704D53E4CA26842F4E052A2601A0761
:1014300004D53B4CA26842F46042A260384C8568F7
:10144000A26822F0F0022A43A260DF0704460D469C
:1014500021D54268324B012A1B6856D0022A59D046
:10146000990728D52E4941F288388B680E4623F01B
:10147000030313438B60FFF7DBF8074604E0FFF735
:10148000D7F8C01B404543D8B368626803F00C032B
:10149000B3EB820FF3D1214A136803F00F03AB4281
:1014A0000CD9136823F00F032B431360136803F068
:1014B0000F03AB4202D00120BDE8F08123685A0738
:1014C00006D51749E0688A6822F4E05202438A6030
:1014D0001B0711D4FFF758FF114B12499B68124AA2
:1014E000C3F30313CB5C20FA03F300201360FFF770
:1014F00067F80020BDE8F081094A2169936823F468
:10150000604343EAC1039360E4E79E03AAD4D2E7B1
:101510000320EFE79801A5D4CDE700BF003C0240CF
:10152000003802400C6A000808000020044B054AFD
:101530009B680549C3F382230868D35CD840704791
:10154000003802401C6A000808000020044B054ACD
:101550009B680549C3F342330868D35CD8407047A1
:10156000003802401C6A00080800002003682DE9CA
:10157000F04313F0010683B004460BD0B84A9168DB
:1015800021F400019160466B91683143B6FA86F60A
:101590007609916013F4002510D0B149E56BD1F8BC
:1015A0008C20B5F5801F22F4401242EA0502C1F8F2
:1015B0008C2000F0B081B5FA85F56D09D90210D5FF
:1015C000A748216CD0F88C20B1F5800F22F440029E
:1015D00042EA0102C0F88C2000F09B81002908BF7C
:1015E000012513F0807F18BF01269A0600F149817A
:1015F000D9060CD59A4AD2F88C1021F08071C2F825
:101600008C10D2F88C10A06B0143C2F88C105A04D5
:1016100008D59349606ED1F8902022F440320243FD
:10162000C1F890201F0408D58D49A06ED1F89020F4
:1016300022F440220243C1F89020D80308D58849FB
:10164000E06ED1F8902022F440120243C1F89020BD
:10165000990308D58249206FD1F8902022F44002E6
:101660000243C1F890205A0608D57D49606CD1F834
:10167000902022F003020243C1F890201F0608D5F3
:101680007749A06CD1F8902022F00C020243C1F8F7
:101690009020D80508D57249E06CD1F8902022F04E
:1016A00030020243C1F89020990508D56C49206D9D
:1016B000D1F8902022F0C0020243C1F890205A05D0
:1016C00008D56749606DD1F8902022F4407202433A
:1016D000C1F890201F0508D56149A06DD1F8902070
:1016E00022F440620243C1F89020D80408D55C4936
:1016F000E06DD1F8902022F440520243C1F89020CE
:10170000990408D55649206ED1F8902022F4404221
:101710000243C1F890205A0208D55149A06FD1F870
:10172000902022F080620243C1F890209F020CD5E5
:101730004B49E06FD1F89020B0F1006F22F00062C9
:1017400008BF01250243C1F8902013F0080F18BF0D
:101750000125580308D54249606FD1F8902022F046
:1017600040720243C1F8902019020BD4B3F1007FFC
:1017700016D0F20714D4012D00F0D080002003B061
:10178000BDE8F0833649B3F1007FD4F88000D1F88A
:10179000902022F0805242EA0002C1F89020E8D165
:1017A0002F4B1A681E4622F080621A60FEF740FF37
:1017B000074604E0FEF73CFFC01B64285DD8336891
:1017C0001B01F7D42368DF0712D5626B82B9D6F804
:1017D0008420D6F8847002F44032606807F07067A5
:1017E000A1683A4342EA801242EA0172C6F88420B4
:1017F0001E0300F11181D80204D5226CB2F5800FCE
:1018000000F00F81D90111D5154E6068D6F88420FB
:10181000D6F8847002F07062216907F0E0473A431D
:1018200042EA801242EA0142C6F884209A010DD5AC
:10183000236962681B04D4E9021043EA8213084A50
:1018400043EA006343EA0173C2F88430044B1A6828
:101850001E4642F080621A60FEF7EAFE074606E086
:1018600000380240FEF7E4FEC01B642805D8336848
:101870001B01F7D5012D81D150E0032003B0BDE855
:10188000F083874A874B116C1F4641F080511164E9
:10189000126C02F080520192019A1A6842F480722E
:1018A0001A60FEF7C5FE804605E0FEF7C1FEA0EB1C
:1018B00008006428E1D83B68DB05F6D5784A236B3D
:1018C000116F03F4407011F4407111D088420FD0B1
:1018D000116F176F21F4407147F480371767176F46
:1018E00027F4803717671167116FCF0700F1C380A6
:1018F000B0F5407F00F0B18069498A6822F4F8129F
:101900008A60674AC3F30B03116F0B4313672368A5
:101910006EE6012665E6002501264FE6604B1A6853
:101920001D4622F080521A60FEF782FE064604E051
:10193000FEF77EFE801B64289FD82B689F00F7D49B
:1019400023681D0300F19280D8021DD5226CDAB9FC
:1019500053496569D1F88820D1F8886002F4403293
:10196000A06906F0E046324342EA851242EA00628C
:10197000C1F88820D1F88C20A06A22F4F8520138EE
:1019800042EA0022C1F88C20990215D5E26FB2F12B
:10199000006F11D142496569D1F88820D1F888607B
:1019A00002F07062206A06F0E046324342EA851295
:1019B00042EA0042C1F888201A0719D5384A6569F9
:1019C000D2F88810D2F8883001F07061E06903F431
:1019D00040330B4343EA851343EA0073C2F888306F
:1019E000D2F88C30E16A23F440330B43C2F88C30D8
:1019F0002B4B1A681C4642F080521A60FEF718FE04
:101A0000054605E0FEF714FE401B64283FF635AF9F
:101A100023689B00F6D5B1E6E26BB2F5801F7FF438
:101A2000EAAE1F4E6068D6F88420D6F8847002F4BF
:101A30004032E16807F0E0473A4342EA801242EA66
:101A40000162C6F88420D6F88C10626A21F01F016A
:101A5000013A0A43C6F88C20D4E61148124982683C
:101A6000194022F4F8120A4382604AE7E26B002A26
:101A70003FF46EAF68E7174641F28838FEF7D8FDAD
:101A8000814606E0FEF7D4FDA0EB090040453FF695
:101A9000F4AE3B6F9807F5D5236B03F4407027E74E
:101AA0000038024000700040FFFCFF0F037F012B55
:101AB00000F0D78002232DE9F041054601202F6870
:101AC00028776B77002A4DD0BC6814F0400E00F0E8
:101AD000C2800C7B4FEA044E0B6A8C698A781C43E7
:101AE0000B7814434A7844EA034491F8243044EADA
:101AF000022444EA036444EA0E048B6ACA20532297
:101B0000D1F80480CE69B3F5807F78627A6248EAC2
:101B10000608BB6800F0818023F40073BB60BB68DB
:101B200023F40053BB60FEF783FD074605E0FEF794
:101B30007FFDC01BB0F57A7F66D82A68D66816F09C
:101B40000206F4D01462C2F84880936843F400732C
:101B500093600023FF2001215062184669772B779C
:101B6000BDE8F081BE6816F0400C77D091F80CC04B
:101B70004FEA0C4C0B7800200E6A092B06D90A3B61
:101B80000130DBB2092BFAD80001C0B218434B7800
:101B90000024092B4FEA004006D90A3B0134DBB28E
:101BA000092BFAD82401E4B223438C78092C4FEA9C
:101BB00003235AD94FF0000E0A3C0EF1010EE4B295
:101BC000092CF9D84FEA0E1E5FFA8EF891F824E03E
:101BD00044EA0804BEF1090F45D9AEF10A0E0132FC
:101BE0005FFA8EFEBEF1090FF7D81201D2B24EEAAB
:101BF000020E8A69164346EA0C0C4CEA00000343C5
:101C00001C4344EA0E6478E703232A68FF21184640
:101C100051622E776B77BDE8F08123F48073BB604F
:101C2000BB6823F48053BB60FEF702FD074605E066
:101C3000FEF7FEFCC01BB0F57A7FE5D82A68D668AF
:101C400016F00106F4D0D461C2F84480936843F4DE
:101C5000807393607DE781F80CE03DE781F80CC06C
:101C600088E7022070470022C1E74FF00008ADE787
:101C7000026838B5D368044623F0A003D360FEF7AA
:101C8000D7FC054605E0FEF7D3FC401BB0F57A7F94
:101C900005D82368DB689B06F5D5002038BD0320F6
:101CA00038BD00BF38B50368DA68520601D5002098
:101CB00038BD4FF0FF320446DA60FEF7B9FC054646
:101CC0002368DB685B06F2D4FEF7B2FC401BB0F57C
:101CD0007A7FF5D9032038BD002841D0F8B5437F7D
:101CE000044603F0FF02002B36D002202368CA21ED
:101CF00053226077204659625A62FFF7D3FF20BB18
:101D00002368FF2517499E68626831402669A768E5
:101D100032436669996032439E68E1683243012626
:101D20009A601961196941EA0741A7691961D9687F
:101D300021F08001D960D96C21F00801D964DA6CF6
:101D40003A43DA645D626677F8BD2268FF210423B6
:101D5000012051626377F8BD027701F079FFC4E793
:101D600001207047BFFF8FFFF8B5037F012B7CD0A8
:101D70000D46022301210668437704460177B768C0
:101D8000002A33D017F040076BD02F7B3F046878D0
:101D90002A780002AB7840EA024018430743CA227F
:101DA0005323204672627362FFF77CFF06460028C9
:101DB0004DD1374923683940D5E904201960996825
:101DC000024321F48021996099680A439A60DA6895
:101DD00022F08002DA609A68920649D5FF2001213C
:101DE00000225862617722773046F8BD17F040072D
:101DF00039D02F7B3F042B780021092B06D90A3BD1
:101E00000131DBB2092BFAD80901C9B219436B7849
:101E10000020092B4FEA014106D90A3B0130DBB211
:101E2000092BFAD80001C0B20343A87809284FEA69
:101E300003232BD90A380132C0B20928FAD812017B
:101E4000D2B20F4310433B4343EA0007A7E72168A0
:101E5000FF20042200230126486262772377304660
:101E6000F8BD2F7393E72F73C5E702263046F8BD00
:101E70002046FFF7FDFE08B92368AFE72268FF217F
:101E800004235162267701266377ADE70022D8E765
:101E90007F7F7F00037F012B70B56AD00546022348
:101EA00001206B7728770E78CB78760348788C788A
:101EB00012B346EA03431C4344EA00242B68CA21B8
:101EC0005322284659625A62FFF7ECFE0646002864
:101ED00045D1314A2B6822405A60DA6822F08002EC
:101EE000DA609A68920647D5FF20012100225862E5
:101EF00069772A77304670BD10F0100F04D020F0BB
:101F000010000A30C0B24870092B4FF0000106D90A
:101F10000A3B0131DBB2092BFAD80901C9B20B43E4
:101F200009284FF000014FEA034306D90A3801316E
:101F3000C0B20928FAD80901C9B20843092C4FEAEE
:101F4000002127D90A3C0132E4B2092CFAD8120147
:101F5000D0B21E43044346EA01000443AEE72968B9
:101F6000FF2004220023012648626A772B7730463F
:101F700070BD0226304670BD2846FFF779FE08B9CD
:101F80002B68B1E72A68FF21042351622E770126CE
:101F90006B77AFE70020DCE73FFFFF00037F012BFB
:101FA000F0B421D003680226CA2553244677FF26C1
:101FB0009F685D625C62A4F65C04DD6C3C400127B6
:101FC00025F006050C43DD64D96C0A430021DA6470
:101FD0000D469C609A6842F400629A605E624777A0
:101FE00001772846F0BC704702252846F0BC7047B0
:101FF00000285DD0002290F85D302DE9F04182622A
:10200000044603F0FF02002B4DD0E768022322684C
:10201000B7F5E06F84F85D3027F40061136894BF72
:102020004FF48055002523F04003B1F5E06F1360B5
:1020300035D1A66A236B2BB9B7F5E06F8CBF0223AD
:1020400001232363A1684FF00008636820690B43F4
:10205000616903430B43D4E906010B43616A4FEA0C
:10206000104C00F4007E0F43216A0CF0040C404633
:102070000B43616B0F4343EA0E034FF0010E47EA37
:102080000C0733433D4313605560D36923F4006369
:10209000D361C4F8608084F85DE0BDE8F08100237E
:1020A0001E46A362C6E780F85C2001F0DFFDACE7C6
:1020B00001207047F0B4046A8D6824F001040E68B2
:1020C000124A0462036A446823F0020387692B43BF
:1020D0000F4D3A40A84242EA06020AD005F5806553
:1020E000A84206D049684460826141630362F0BC43
:1020F000704723F00803CF684D6924F440748E695B
:102100003B43354323F004032C43EBE78CFFFEFFF6
:1021100000000140F0B4046A8D6824F480740E68F5
:10212000144A0462036A446823F40073C76943EAEB
:102130000523114D3A40A84242EA06020AD005F5AD
:102140008065A84206D049684460C261C1630362E9
:10215000F0BC704723F40063CF684D6924F4405409
:102160008E6943EA0723354323F4806344EA051468
:10217000E9E700BF8CFFFEFF00000140F0B4046AF5
:102180008D6824F480540E680F4A0462036A446820
:1021900023F40053C76943EA05330C4D3A40A84283
:1021A00042EA06220AD005F58065A84206D04968B1
:1021B0004460C26101640362F0BC704724F480444F
:1021C0004D6944EA8514F2E7FF8CFFFE00000140F0
:1021D000F0B4046A8D6824F480340E680F4A0462F7
:1021E000036A446823F40033476D43EA05430C4D0A
:1021F0003A40A84242EA06020AD005F58065A842A4
:1022000006D049684460426581650362F0BC70474E
:1022100024F480344D6944EA0524F2E78FFFFEFF81
:1022200000000140F0B4046A8D6824F480140E6844
:102230000F4A0462036A446823F40013476D43EABB
:1022400005530C4D3A40A84242EA06220AD005F551
:102250008065A84206D0496844604265C165036252
:10226000F0BC704724F480244D6944EA8524F2E7E9
:10227000FF8FFFFE00000140704700BF90F83C3028
:10228000012B5BD002460220136870B482F83D0037
:10229000012598684C4C82F83C500440086840285E
:1022A0009C6076D04CD960282FD058D970281BD08C
:1022B000B0F5005F0FD1CC68D1E9015040EA0501CB
:1022C000986841EA042120F47F40014399609968AD
:1022D00041F48041996000230121184682F83D10A5
:1022E00082F83C3070BC7047D1E90150CC6840EABC
:1022F0000501986841EA042120F47F400143996078
:10230000996841F077019960E5E71C6A4D6824F00F
:102310001004CE681C629869196A20F4704021F09C
:10232000A00140EA063041EA0511986119629968F6
:1023300021F0700141F067019960CCE702207047FD
:10234000102804D03DD9202801D03028C3D1996865
:1023500040F0070021F0700108439860BBE7502867
:10236000B9D11D6A1C6A486825F00A0524F00104E9
:10237000CE6828431C62996921F0F00141EA0611F8
:1023800099611862996821F0700141F057019960D4
:10239000A1E71D6A1C6A486825F00A0524F00104BB
:1023A000CE6828431C62996921F0F00141EA0611C8
:1023B00099611862996821F0700141F047019960B4
:1023C00089E70028C3D086E78800FEFFF0B4324ECC
:1023D000B0F1804F314FA0EB06060368A0EB070772
:1023E000B6FA86F6B7FA87F74FEA56164FEA571746
:1023F00025D026BB2A4A90423ED002F58062904208
:102400003AD002F5806290423BD0002F39D1254A64
:10241000904218D002F58062904214D002F580629A
:10242000904210D0A2F5983290420CD002F5806212
:10243000904208D002F58062904208D103E023F078
:1024400070034D682B4323F44073CD682B434A69D6
:1024500023F080038C6813430A680360C4628262BD
:1024600026B91FB90123F0BC436170470B690363B0
:102470000123F0BC4361704723F070034A681343A3
:10248000E1E7094A23F070034C68904243EA0403F1
:10249000D9D0002FD7D1BAE7000001400004014095
:1024A0000004004000400140000C0040B8B190F82A
:1024B0003D3010B503F0FF0204465BB102232068F3
:1024C000211D84F83D30FFF781FF0123002084F8AF
:1024D0003D3010BD80F83C2001F00EFCEEE70120FD
:1024E000704700BFB8B190F83D3010B503F0FF025F
:1024F00004465BB102232068211D84F83D30FFF7BC
:1025000065FF0123002084F83D3010BD80F83C2099
:10251000FFF7B2FEEEE70120704700BFF0B4046A97
:102520008D6824F010040E68144A0462036A44683B
:1025300023F02003876943EA0513114D3A40A8426E
:1025400042EA06220AD005F58065A84206D049680D
:102550004460826181630362F0BC704723F08003B2
:10256000CF684D6924F440648E6943EA071335430C
:1025700023F0400344EA8504E9E700BFFF8CFFFE37
:102580000000014038B590F83C30012B00F08D8000
:102590000D4602230121044680F83D3080F83C10AE
:1025A000142A1DD8DFE802F00B1C1C1C371C1C1C55
:1025B0004A1C1C1C5C1C1C1C6F1C1C1C2400294677
:1025C0000068FFF777FD23682869996941F00801E1
:1025D0009961996921F0040199619A6902439A61AC
:1025E00000230122184684F83D2084F83C3038BD91
:1025F00029460068FFF716FE23682869596D41F4E3
:1026000000615965596D21F4806159655A6D42EA3E
:1026100000225A65E4E729460068FFF77FFF236838
:102620002869996941F400619961996921F480618F
:1026300099619A6942EA00229A61D1E729460068C5
:10264000FFF768FD23682869D96941F00801D9615D
:10265000D96921F00401D961DA690243DA61BFE77F
:1026600029460068FFF78AFD23682869D96941F483
:102670000061D961D96921F48061D961DA6942EADE
:102680000022DA61ACE729460068FFF7A1FD236864
:102690002869596D41F008015965596D21F004010F
:1026A00059655A6D02435A659AE7022038BD00BF4A
:1026B00090F83C30012B25D00268022370B4134DF2
:1026C00080F83D30AA425368946816D005F58065BD
:1026D000AA4212D00D6824F08004896823F07003A8
:1026E00001262B43214300255360916080F83D6013
:1026F00080F83C50284670BC704723F470034D6846
:102700002B43E7E702231846704700BF0000014053
:10271000F8B5466F202E3BD100293BD0B2FA82F7A4
:102720007F09002F36D190F87040012C30D013462D
:10273000054621220124D0F868E0A0F85230E9646F
:10274000C767A0F85030426780F870400268BEF159
:10275000000F12D0DFF854C028321348CEF840C022
:10276000DFF84CC0CEF83C007046CEF85070CEF882
:102770004CC0FEF789F978B92A684023002113621A
:102780000846936885F8701043F080039360F8BDA5
:102790000220F8BD0120F8BD102385F87070204696
:1027A000EB676E67F8BD00BFB9270008E92700088E
:1027B000F9270008704700BF08B5C369806BB3F5FF
:1027C000807F0CD003680022A0F852209A6822F083
:1027D00080029A601A6842F040021A6008BDFFF752
:1027E000E9FF08BD704700BF08B5806BFFF7FAFF2F
:1027F00008BD00BF704700BF836B1A6810B55C6FDF
:10280000986F9168090601D5212C1BD09168490663
:1028100001D5222807D0DA6F184642F01002DA6795
:10282000FFF7E8FF10BD00202024A3F85A0011682C
:1028300021F490711160916821F001019160186696
:102840009C67E8E700212024A3F85210116821F0CA
:10285000C00111605C67D9E7F8B504468368AF49E9
:10286000E669E768AE4DD0E904201A4323680243C5
:102870001868AB4201EA000142EA060242EA01029C
:10288000A1691A605868226A20F4405042EA0102A5
:1028900040EA07005860996821F4306142EA010279
:1028A0009A6041D09F4A93421BD09F4A934200F0C6
:1028B000B1809E4A934200F0DF809D4A934253D0FC
:1028C0009C4A934200F0BE809B4A934200F00581EF
:1028D0009A4A934200F0118100230120C4E9183381
:1028E000F8BD02F5FA32964BD2F8902002F00C02B5
:1028F00013441B79B6F5004F1ED0082BECD801A26B
:1029000052F823F0032A000895290008B32A00088A
:10291000D92800085B2A0008D9280008D92800080F
:10292000D9280008352A0008864B854AD3F890300C
:1029300003F00303D35CDDE7082BCDD801A252F8E6
:1029400023F000BF6D2A0008BF290008932A000861
:10295000D9280008732A0008D9280008D9280008B7
:10296000D9280008A32A0008764BD3F8903003F446
:102970004073B3F5807F6DD03DD9B3F5007F00F093
:102980008580B3F5407F52D0A6E7002BA4D1B6F5E1
:10299000004F14D0FEF7DAFD626800EB5203B3FB80
:1029A000F2F39BB2A3F110014FF6EF72914293D86C
:1029B00022680020D3600023C4E91833F8BDFEF775
:1029C000C5FD6268530803EB4003B3FBF2F39BB20F
:1029D000A3F110014FF6EF7291423FF67DAF23F065
:1029E0000F02C3F34203216800201343CB6000238E
:1029F000C4E91833F8BD002B7FF46EAFB6F5004F75
:102A000034D0FEF793FD626800EB5203B3FBF2F3A0
:102A10009BB2C7E74B4BD3F8903003F03003102B39
:102A200018D0E8D9202B31D0302B7FF455AFB6F534
:102A3000004F36D06268530803F50043B3FBF2F34E
:102A40009BB2AFE73F4BD3F8903003F44063B3F54C
:102A5000806F36D1B6F5004F0BD0FEF795FC62685B
:102A600000EB5203B3FBF2F39BB29BE7FEF75EFD74
:102A7000A7E7FEF789FCA4E7324BD3F8903003F0C8
:102A8000C003402BE6D0B6D9802B23D1B6F5004F3A
:102A90000FD162682C4B03EB5203B3FBF2F39BB2F2
:102AA00096E76268530803F58033B3FBF2F39BB2F9
:102AB0008EE76268254B03EB5203B3FBF2F39BB244
:102AC00070E77FF662AFB3F5006FDFD0B3F5406F0C
:102AD000ADD001E7C02BAAD0FEE61A4BD3F8903058
:102AE00003F44053B3F5805FB4D084D9B3F5005FED
:102AF000CCD0B3F5405F9AD0EEE6124BD3F89030CD
:102B000003F44043B3F5804FA4D07FF674AFB3F520
:102B1000004FBBD0B3F5404F89D0DDE6F369FFEF3E
:102B2000001001400044004000480040004C0040BC
:102B3000005000400014014000780040007C00403C
:102B4000F8690008003802400048E8010024F40059
:102B5000436ADA0710B406D50168846A4A6822F429
:102B6000003222434A609C0706D50168C46A4A685D
:102B700022F4803222434A60590706D50168046B6B
:102B80004A6822F4802222434A601A0706D5016867
:102B9000446B4A6822F4004222434A60DC0606D5B0
:102BA0000168846B8A6822F4805222438A60990605
:102BB00006D50168C46B8A6822F4005222438A60F9
:102BC0005A060AD50168046C4A68B4F5801F22F4DD
:102BD000801242EA04024A600BD01B0606D5026846
:102BE000816C536823F400230B4353605DF8044B5E
:102BF00070474A68446C22F4C00222434A60ECE702
:102C00002DE9F843089D80460F4616469946D8F8A8
:102C1000004001E06B1C0AD1E06937EA00030CBFF9
:102C200001200020B042F5D00020BDE8F883FDF778
:102C3000FFFCA0EB0900A84201D8002DE7D1D8F88D
:102C400000302021002403201A6822F4D0721A6078
:102C50009A6822F001029A60C8F8741088F87040EF
:102C6000C8F87810E1E700BF2DE9F0411F46436F37
:102C700084B0202B3ED10D4600293FD0B2FA82F617
:102C800003927609002E39D190F870300446012B5A
:102C900030D021230121C66780F870104367FDF70B
:102CA000C7FCA368039A8046B3F5805FA4F8502060
:102CB000A4F8522009D136E015F8012B9A62B4F835
:102CC0005230013B9BB2A4F85230B4F85230009716
:102CD0009BB2DBB14346002280212046FFF790FFE4
:102CE00080B92368002DE7D136F8022BC2F3080221
:102CF0009A62E4E7022004B0BDE8F081012004B04C
:102D0000BDE8F081032004B0BDE8F0814346002215
:102D100040212046FFF774FF0028F3D1202384F8D8
:102D200070006367E7E72369002BCED12E461D466E
:102D3000CBE700BF70B50025044682B0C567FDF73C
:102D400077FC22681268130708D400232022184653
:102D5000626784F87030A26702B070BD6FF07E4683
:102D600003462A464FF4001100962046FFF748FF1D
:102D70000028EAD0032002B070BD00BF70B3436FDB
:102D800010B50446FBB1226824232046636713680C
:102D900023F001031360FFF75FFD012818D0636A79
:102DA000C3B9236820465A6822F490425A609A6850
:102DB00022F02A029A601A6842F00102BDE810402F
:102DC0001A60FFF7B7BF80F8703001F019F8DAE742
:102DD000012010BD2046FFF7BBFEE2E7012070474F
:102DE000082807D004D9402804D0802802D0704792
:102DF0000428FCD110B501F0AFFC0368BDE8104019
:102E00009B68184770B5B4B0302200214FF480356C
:102E100007A8022402F0C8FC0023842213A8194644
:102E200006930926CDE90233CDE9043302F0BCFC58
:102E3000FEF74CF8264B274A07A8196C41F0805141
:102E4000196401211B6C03F080530093009B1368ED
:102E500023F4404343F40043136013684FF4A87213
:102E600008954FF4800503F440430C91192107960F
:102E70000193019B07230D94119410921293CDE9B5
:102E80000E51FEF7B5F800B1FEE703464FF480524D
:102E90000F264FF4A05502A805210493039402962F
:102EA000CDE90552FEF7A4FA034600B1FEE70A4950
:102EB0004FF4007213A8249329932C932E9313910B
:102EC0001F92FEF753FB00B1FEE734B070BD00BFA8
:102ED0000038024000700040604801002DE9804841
:102EE000A1B00024FDF78CFB0225FFF78BFFD24B2E
:102EF0001694102115944FF008091794224618943F
:102F00004FF00E0B199403271E6B4FF00C08CB48A3
:102F10004FF00A0A46EA010C0126C3F830C0D3F884
:102F200030C00CEA010CCDF804C0DDF804C0D3F8C1
:102F300030C04CF0400CC3F830C0D3F830C00CF0B7
:102F4000400CCDF808C0DDF808C0D3F830C04CEA1A
:102F5000050CC3F830C0D3F830C00CEA050CCDF82E
:102F60000CC0DDF80CC0D3F830C04CEA090CC3F833
:102F700030C0D3F830C00CEA090CCDF810C0DDF831
:102F800010C0D3F830C04CF0040CC3F830C0D3F8F4
:102F900030C00CF0040CCDF814C0DDF814C0D3F828
:102FA00030C04CEA060CC3F830C0D3F830C00CEA8D
:102FB000060CCDF818C0DDF818C0D3F830C04CF4BA
:102FC000007CC3F830C0D3F830C00CF4007CCDF8DE
:102FD0001CC0DDF81CC0D3F830C04CF4807CC3F8B2
:102FE00030C0D3F830C00CF4807CCDF820C0DDF8C0
:102FF00020C0D3F830C04CF4806CC3F830C0D3F894
:1030000030C00CF4806CCDF824C0DDF824C0D3F8B7
:1030100030C04CF0200CC3F830C0D3F830C00CF0F6
:10302000200CCDF828C0DDF828C0D3F830C04CF013
:10303000800CC3F830C01B6B03F080030B930B9B19
:10304000FDF78CFE22464FF401417D48FDF786FED8
:10305000324620217B48FDF781FE224649467A48C8
:10306000FDF77CFE22464FF480517848FDF776FE4E
:1030700022464FF401517648FDF770FE224649463C
:103080007448FDF76BFE102315A97348CDF864B0A2
:10309000CDE91535CDE91744FDF73CFD15A96E487E
:1030A000CDF85490CDE91644FDF734FD4FF4D043EC
:1030B00015A9684815930B2318971993CDE9165451
:1030C000FDF728FD4FF6837315A9634815931897EC
:1030D000CDF86480CDE91654FDF71CFD43F623437B
:1030E00015A9564815931897CDF864A0CDE9165444
:1030F000FDF710FD102315A9504815931696CDE93C
:103100001744FDF707FD802315A94E481593CDE917
:103110001654CDE91849FDF7FDFC4FF4F85315A9F5
:103120004E481593CDE91654CDE91878FDF7F2FC19
:103130004FF4014315A9424815931894CDE916643C
:10314000FDF7E8FC48F2331315A942481593CDE981
:103150001654CDE91878FDF7DDFC4EF6FF7315A97E
:103160003F481593CDE91654CDE9184BFDF7D2FC35
:103170004FF4805315A93A481593CDE91644FDF74D
:10318000C9FC4CF2037315A92E481593CDE91654CA
:10319000CDE91878FDF7BEFC4FF4E05315A9284897
:1031A0001593CDE91654CDE9187AFDF7B3FCF02359
:1031B00015A926481593CDE91654CDE9184AFDF70F
:1031C000A9FCF72315A920481593CDE91654CDE99C
:1031D000184BFDF79FFC4FF4805315A91D48CDE90E
:1031E00015350923CDE917441993FDF793FC4FF4E6
:1031F000806315A917481593CDE91654CDE9184AEF
:10320000FDF788FC202315A90E4815931894CDE9E5
:103210001664FDF77FFC134B15A90C481693CDF8E7
:1032200054801796FDF776FC4FF4005315A90B4810
:103230001593CDE9164417E000380240000402401F
:1032400000000240000C0240002802400020024022
:10325000001C02400018024000100240000802401A
:103260000024024000003110FDF754FC4FF63F03EC
:1032700015A9AD481593CDE91654CDE91878FDF799
:1032800049FC4FF4464315A9A8481593CDF864B0FE
:103290004FF0280B1894CDE91654FDF73BFC15A907
:1032A000A348CDF854901894CDE91664FDF732FC8C
:1032B000102315A99F481794CDE91534FDF72AFC72
:1032C000042315A99B481593CDE91654CDE9187828
:1032D000FDF720FC48F2040315A997481593CDE9A2
:1032E0001644FDF717FC4FF4805315A98F48CDE91C
:1032F0001536CDE91744FDF70DFC4FF4015315A920
:103300008D4815931894CDE91664FDF703FC4FF42E
:1033100000528A4B15A985481592CDE91634FDF760
:10332000F9FB102315A98448CDF864A0CDE9153523
:10333000CDE91747FDF7EEFB15A97F48CDF854B04E
:10334000CDE91654CDE91878FDF7E4FB7C4AC0239B
:1033500015A97C481593CDE91626FDF7DBFB15A9C9
:103360007948CDF86480CDE91595CDE91747FDF78B
:10337000D1FB052315A974481593CDE91654CDE961
:10338000187AFDF7C7FB0B22322315A96E48199254
:1033900015931897CDE91654FDF7BCFB15A969489C
:1033A000CDE91596CDE91744FDF7B4FB042315A923
:1033B00064481794CDE91534FDF7ACFB86230B2246
:1033C00015A96248159319921897CDE91654FDF77F
:1033D000A1FB5E4815A9CDF864A0CDE915B5CDE9EE
:1033E0001747FDF797FB224621464846FDF7A4FA0A
:1033F0004846FDF7D7FA224621460920FDF79CFAF8
:103400000920FDF7CFFA224621461720504DFDF73F
:1034100093FA1720FDF7C6FA4E494FF480324E4B0F
:103420002846EE616E61AC602C61AC6185F820408D
:10343000EC62EC6085F83040AB62CDE91544CDE933
:103440001744C5E90012FDF7F9F800B1FEE703469D
:103450000422284615A91793CDE91526FDF7A4F9EE
:10346000024600B1FEE73D4B3D4918461A6319601C
:10347000C3E90122C3E90322C3E90522C3E9082203
:10348000C3E90A22FDF7B4FA034600B1FEE7354C62
:10349000354A364D20462362C4E90236C4E9043376
:1034A000C4E90633C4E90025FDF768FC014600B114
:1034B000FEE72046FDF7B6FC014600B1FEE72046D8
:1034C000FDF7DAFC034600B1FEE7294C294A204605
:1034D000656023622260C4E90236C4E90433C4E9AA
:1034E0000633FDF74BFC014600B1FEE72046FDF731
:1034F00099FC014600B1FEE72046FDF7BDFC0246FF
:1035000000B1FEE71C4BFF211C4C18469E60C3E92E
:103510000326C3E90522C3E90722C3E90041FDF7F9
:1035200005FD68B3FEE700BF001402400020024022
:1035300000280240000C0240001C02400000121053
:103540000000311000180240000802400000024054
:1035500034050020002201400100000F7C050020FE
:10356000000005506804002000540040F7A3A000AC
:1035700078030020005C00406C070020001000A0D1
:103580000025A44C2C2215A829460F950C951495BE
:10359000CDE91055CDE9125502F006F9FF239E49F9
:1035A0007F222046656025612160C4E90223C4E9C9
:1035B0000555FEF791FB034600B1FEE701220FA976
:1035C0002046ADF83C308DF83E30CDE91333FEF7A0
:1035D000CBFB00B1FEE7914B20AD0122204645F820
:1035E000503D2946FEF756FC034600B1FEE7012692
:1035F0004FF4807715A920463246ADF854308DF847
:10360000563016931D938DF878601F97CDE91933C6
:10361000CDE91B33FEF74AFA00B1FEE74FF400771D
:1036200015A9324620468DF878601F97FEF73EFABE
:10363000014600B1FEE720460222FEF7AFFC00B1D2
:10364000FEE7774B0721DFF800C208224FF48276AD
:103650004FF44074986018639F61DC60D9625A63CC
:10366000C3E90400C3E90700C3E909001846C3E938
:1036700000C6FEF7BDFC034600B1FEE7694C6A4A8E
:1036800015902046189311932260CDE91633CDE9A9
:103690000F33C4E90133C4E90333C4E90533FEF74A
:1036A00005FF00B1FEE74FF4805315A9204615939E
:1036B000FEF7E4FD034600B1FEE720460FA9119393
:1036C000CDE90F33FEF7F4FF00B1FEE7574C0023BE
:1036D0004FF08042204611932361A361C4E9002387
:1036E000CDE91533CDE91733CDE90F33C4E9023302
:1036F000FEF7DCFE00B1FEE74FF4805615A9204628
:103700001596FEF7BBFD034600B1FEE720460FA964
:103710000F931193FEF7CCFF034600B1FEE7444C34
:10372000444A1590204618931193A3612260CDE975
:103730001633CDE90F33C4E90133C4E90333FEF78F
:10374000B5FE00B1FEE715A920461596FEF796FDD9
:10375000034600B1FEE720460FA90F931193FEF731
:10376000A7FF034600B1FEE7334C344A0F902046D2
:1037700012930C931B93A3612260CDE91033C5E92A
:103780000133CDE91533CDE91733CDE91933C4E958
:103790000133C4E90333FEF789FE00B1FEE70FA948
:1037A00020460F96FEF76AFD00B1FEE72046FEF7C1
:1037B00099FE034600B1FEE7294620460C930E937E
:1037C000FEF776FF00B1FEE7602000230C2215A96A
:1037D000159019481993CDE91633FEF7D3FE044628
:1037E00000B1FEE7164D144800F0E0FA154B2846EC
:1037F00011942B60CDE91544CDE91744CDE90F4470
:10380000C5E90144C5E90344C5E90544FEF74EFE98
:10381000E0B1FEE74C060020002800400101010055
:10382000C40300206C060020000001402C0700208B
:10383000F404002000040040B4040020000C004008
:103840002804002000040140003800404FF4805359
:1038500015A928461593FEF711FD034600B1FEE7B2
:103860000FA928461193CDE90F33FEF721FF024639
:1038700000B1FEE7174B4FF4E13517490C24184609
:103880001A615C61C3E90222C3E90622C3E9082286
:10389000C3E90015FFF772FA024600B1FEE70F4BCD
:1038A0000F4918465A621960C3E90152C3E903225D
:1038B000C3E90542C3E90722FFF760FA00B1FEE75A
:1038C0000A2001F047FC00F003FC00F003FC01F0CB
:1038D0006DFCFEE7CC05002000100140AC06002086
:1038E000001401400A4B82B01A6C42F080521A64F4
:1038F0001A6C02F080520092009A5A6C42F4804294
:103900005A645B6C03F480430193019B02B07047DF
:103910000038024002681F4B30B59A4289B04FF020
:103920000004CDE90344CDE90544079401D009B072
:1039300030BD03F58B334FF4F860032503A95A6CAF
:1039400042F480625A645A6C02F480620092009AD7
:103950001A6B42F020021A631A6B02F020020192E5
:10396000019A1A6B42F001021A631B6B039003F079
:103970000103094804950293029BFDF7CBF801234C
:1039800003A906480393CDE90454FDF7C3F809B031
:1039900030BD00BF00220140001402400000024080
:1039A00002683D4B70B59A428CB04FF00004CDE9EF
:1039B0000744CDE909440B9401D00CB070BD374BDE
:1039C000602002260D255A6B07A942F001025A63B6
:1039D0005A6B02F001020192019A1A6B42F0100236
:1039E0001A631A6B02F010020292029A1A6B42F0EA
:1039F00008021A631A6B02F008020392039A1A6B08
:103A000042F040021A631A6B02F040020492049AD8
:103A10001A6B42F080021A631A6B02F08002059260
:103A2000059A1A6B42F001021A631B6B079003F0B0
:103A300001031B4808960693069B0B95FDF76AF851
:103A4000082307A91748079308960B95CDE9094461
:103A5000FDF760F84FF4007307A913480793089621
:103A60000B95CDE90944FDF755F84FF4BC4307A980
:103A70000E48079308960B95CDE90944FDF74AF8DF
:103A8000502307A90A4808960B950793CDE90944E6
:103A9000FDF740F80CB070BD000005500038024042
:103AA00000100240000C024000180240001C0240BE
:103AB00000000240026800232A4970B58A428AB099
:103AC000CDE90533CDE90733099328D0264B9A4237
:103AD00001D00AB070BD254C122201204FF4C076EF
:103AE000236B032505A943F080032363236B069210
:103AF000042203F0800307901D480393039B05965F
:103B0000CDE90852FDF706F8236C43F40003236463
:103B1000236C03F400030493049B0AB070BD134CA0
:103B2000122004224FF44076236B012505A943F0AF
:103B300002032363236B069003F002030D480596EE
:103B40000193019B07950992FCF7E4FF236C43F472
:103B500000132364236C03F400130293029B0AB046
:103B600070BD00BF00540040005C004000380240BF
:103B7000001C0240000402400268304B2DE9F04175
:103B80009A428AB04FF00004CDE90544CDE90744DC
:103B9000099402D00AB0BDE8F081294B0226032522
:103BA00009279A6B4FF0040805A9264832439A6307
:103BB0009A6B32400192019A1A6B42F010021A631A
:103BC0001A6B02F010020292029A1A6B32431A63C5
:103BD0001A6B32400392039A1A6B42F008021A637E
:103BE0001B6BCDF8148003F0080306960895049328
:103BF000049B0997FCF78EFF40220A2305A912486F
:103C0000059209930696CDE90745FCF783FF05A9C0
:103C10000D480794CDE90586CDE90857FCF77AFFF2
:103C20004FF4605305A90948069607940593CDE91A
:103C30000857FCF76FFF0AB0BDE8F081001000A044
:103C4000003802400010024000040240000C024014
:103C50000268044B9A4204D1034A136F43F40043B1
:103C600013677047002800400038024002681F4B6D
:103C700070B59A4288B04FF00004CDE90344CDE915
:103C80000544079401D008B070BD03F50033022548
:103C9000052603A91A6C164842F480421A641A6C6D
:103CA00002F480420092009A1A6B42F480721A6306
:103CB0001A6B02F480720192019A1A6B2A431A63FA
:103CC0001B6B03952B40049507960293029BFCF710
:103CD00021FF4FF4404303A9064804950796039338
:103CE000CDE90544FCF716FF08B070BD0038004070
:103CF0000020024000040240036886B0264A934236
:103D00000DD0B3F1804F2DD0244A934213D0244AD2
:103D1000934234D0234A934219D006B07047224BC5
:103D20005A6C42F001025A645B6C03F00103019388
:103D3000019B06B070471C4B1A6C42F002021A64D9
:103D40001B6C03F002030393039B06B07047164BF2
:103D50005A6C42F002025A645B6C03F00203059352
:103D6000059BDAE703F50E331A6C42F001021A6480
:103D70001B6C03F001030293029B06B070470A4BD1
:103D80001A6C42F008021A641B6C03F008030493D7
:103D9000049B06B0704700BF0000014000040040D3
:103DA000000C00400004014000380240016800237C
:103DB000104A30B5914287B0CDE90133CDE90333E4
:103DC000059301D007B030BD0B4B0224012501A99A
:103DD0001A6B0A4842F480721A631B6B019503F454
:103DE0008073029405940093009BFCF793FE07B048
:103DF00030BD00BF000C00400038024000200240EF
:103E00000368314A70B593428AB04FF00004CDE99F
:103E10000544CDE90744099425D02C4A934201D0AA
:103E20000AB070BD2A4BC020022605A95A6C032592
:103E3000082442F020025A645A6C02F020020392D5
:103E4000039A1A6B42F004021A631B6B059003F08D
:103E50000403204806960493049BCDE90854FCF71C
:103E600059FE0AB070BD1A4B0226802007255A6CF5
:103E700005A942F010025A645A6C02F01002009236
:103E8000009A1A6B32431A631A6B32400192019AFC
:103E90001A6B42F001021A631B6B059003F00103D9
:103EA0000D4806960293029B0995FCF733FE4FF4EA
:103EB000007305A90948069609950593CDE90744BD
:103EC000FCF728FE0AB070BD00100140001401404C
:103ED0000038024000080240000402400000024096
:103EE00010B5FCF799FBFCF7A3FB044601F0C4FAFC
:103EF000B4FBF0F303FB104000B110BDBDE810406F
:103F000001F0ACBA0420FCF72DBF00BF0820FCF77D
:103F100029BF00BF08B54020FCF724FF8020BDE882
:103F20000840FCF71FBF00BF0120704708B501F033
:103F3000CBFB162303604FF0FF3008BD08B501F03E
:103F4000C3FB16230360FEE770B5161E07DD0C46A3
:103F50008D19AFF3008004F8010BA542F9D130466A
:103F600070BD00BF70B5161E07DD0C468D1914F824
:103F7000010BAFF30080A542F9D1304670BD00BF00
:103F80000C4A08B5136833B118446946884209D809
:103F90001060184608BD08490B4611606946184470
:103FA0008842F5D901F090FB0C224FF0FF330260FC
:103FB000184608BD90000020C00700204FF0FF30D9
:103FC000704700BF4FF4005300204B60704700BFA4
:103FD00001207047002070470F4A104BD2F888002C
:103FE0000F4940F4700070B4C2F8880000241868CB
:103FF0004FF000650B4E40F0010018609C6018689F
:10400000014019605E60196821F480211960DC604C
:10401000956070BC704700BF00ED00E000380240C2
:10402000FFFFF6FE10300024704700BF014800F08B
:10403000AFBB00BFE46D0008014800F0A9BB00BFA2
:10404000F86D000810B50446042101F028FA204656
:1040500010BD00BF10B5044B04460448236000F0B7
:1040600097FB204610BD00BF2C6A00080C6E0008AC
:1040700070B5042082B0144C01F013FA0546FFF726
:10408000E9FF3020256001F00CFA054600F07CFACB
:104090001820656001F005FA054600F011F9606826
:1040A00000230A4A29460668A560F568CDE9002381
:1040B00002AB13E90C00A847A068216803689B685D
:1040C00002B0BDE87040184798000020BD410008CC
:1040D000704700BFFFF7CCBF007C7047704700BF40
:1040E00010B50446142101F0DAF9204610BD00BFD6
:1040F00010B500220121044600F090FC024A002382
:1041000020462260237410BD246E0008704700BF53
:104110000020704781601846704700BF816070477B
:104120008068C9B203689B68184700BFA0F104000B
:10413000FFF7F6BF8068C9B20368DB68184700BFA5
:10414000A0F10400FFF7F6BF10B50446102101F0FE
:10415000A6F9204610BD00BF064B10B503F12002A2
:104160000446C068C4E9003208B101F0B3F9204642
:1041700010BD00BF446A0008A0F10400FFF7ECBFC7
:10418000084B10B503F120020446C068C4E90032B0
:1041900008B101F09FF92046182101F080F920466E
:1041A00010BD00BF446A0008A0F10400FFF7E8BF9B
:1041B0004160704741600020704700BF70B5D0E992
:1041C00003431B1B9B10994224D254F8214010201A
:1041D0002368DD6872B101F064F9104903460322D7
:1041E000C4602046196019461A719A602B46BDE8D2
:1041F0007040184701F055F9084E0346032102228A
:10420000C4601E602046197119469A602B46BDE8AD
:10421000704018471A46024801F081F9386E0008CC
:10422000446E00082DE9F04FD0E9005A83B00646ED
:10423000AAEB05038846A1EB050B9B1034D05F0069
:10424000BB4234D96FF003073846019201F029F9D7
:10425000356881460744D6F804A0A8EB0504019A06
:1042600019EB0B0F02D0136849F80B30A84504D0A6
:1042700022462946484601F07EFA231DC245AAEB94
:1042800008044B4405D018464146224601F068FA1E
:1042900003461C4415B1284601F01CF9B760C6E975
:1042A000009403B0BDE8F08F0127BF00CCE7B7F161
:1042B000804FC7D2002FF8D15C46B946D0E700BF87
:1042C0002DE9F041194A0023194F82B002F1200173
:1042D00002603D6841604361C0E9033305BB0446A9
:1042E00000F10C083860182001F0DBF83A68E9B2F8
:1042F000064600F0CBF80196D4E9041399420AD09F
:1043000001B10E60043121610135042DEBD120464D
:1043100002B0BDE8F08101AA4046FFF783FFF3E752
:104320003832044B0E21044801F0AAF9446A00080F
:10433000A4000020906E00089C6E0008034B10B58E
:104340000446036000F05AFB204610BDB06A000826
:10435000054B10B50446036000F050FB18212046C1
:1043600001F09DF8204610BDB06A0008F8B5037C46
:1043700004464374042B00F28780DFE803F0363EE6
:10438000572B0300204600F03DFB90F90430022B30
:1043900026D0627C0025237C9A4214D0032B14D0B3
:1043A000042B10D16069A17C03685B69984723687E
:1043B0001020DE6801F075F80746002100F062FB6E
:1043C00020463946B0472846F8BD6069A17C03689D
:1043D0001B69EBE700F016FB90F90430022BD1D1FA
:1043E0000123002523742846F8BD00F00BFB90F94B
:1043F0000450012DCDD12574E5E700F003FB90F9C1
:104400000430032BC5D1204600F0FCFA8668022E4A
:10441000BFD12046012500F0F3FA016823464FF48E
:104420007A728F690521B8472674CCE700F0EAFA62
:1044300090F90430032B16D00025204600F0E2FA54
:1044400090F90460042E02D0627C237CA4E720460D
:1044500000F0D8FA8368052BF6D1637C0125267419
:10446000042B9FD1AFE7204600F0CCFA8368032BE2
:10447000E2D12374204600F0C3FA036822460521E6
:10448000DB6901259847D8E700259CE770B50E4603
:1044900000210446154600F08BFA0549002320460A
:1044A000A67465612160237400F06CFA204670BD2B
:1044B000B06A0008704700BF30B4054682B00120E2
:1044C000A96105F11C0402A984E80C0001E90C00B3
:1044D00002B030BC704700BFA0F10400FFF7ECBF92
:1044E000074B03F1080103F12402383310B50446E9
:1044F000C0E9001240F8083F00F080FA204610BDE5
:10450000D06A0008A0F10400FFF7EABFA0F108009C
:10451000FFF7E6BF094B03F1240203F1080138332A
:1045200010B50446C0E9001240F8083F00F066FAF2
:104530002046302100F0B3FF204610BDD06A0008AD
:10454000A0F10800FFF7E6BFA0F10400FFF7E2BF0B
:1045500070B50A4D04462B68DB0707D4281DFFF70A
:10456000C7FD012306482B6001F0A8F8A36804F1F9
:1045700008000449DB68BDE870401847A800002027
:10458000B5440008AC00002070B51C4A00F10806D4
:104590001B4B044600211B4DC0E90023304600F0B0
:1045A00007FA194AA96902F11C0002F13003C4E9B3
:1045B0000020A360D9B901233046216284F8241079
:1045C00084F8293084F8253084F82A3084F826309D
:1045D00084F82B3084F8273084F82C3084F8283085
:1045E000AC61C4E9061100F0CDF9204670BD50322F
:1045F000064B0D21064801F043F800BF186F000874
:10460000046F0008A8000020D86A0008906E000817
:10461000246F0008F8B50024064604212048FCF762
:1046200097FB031B4FF008011D4818BF012306F13B
:10463000250586F82530FCF78BFB031B4FF0800126
:10464000184818BF012386F82630FCF781FB031BAE
:104650004FF04001134818BF012386F82730FCF7BC
:1046600077FB001B18BF012086F8280015F8013BD6
:10467000A1B20134E8781A4698420ED0EB70376A3E
:10468000D6F818E04FEA670CFF07F3690EEB0C0051
:1046900002D55EF80C70FB589847042CE6D1F8BDA3
:1046A000002002400018024070B590F824500446E3
:1046B000012D29D01AD3022D02D00025284670BD25
:1046C00000F10806304600F09DF990F90430042B03
:1046D00037D094F824309D42EFD0012B4FF00005E5
:1046E000ECD12046FFF796FF284670BD083000F059
:1046F00089F990F90430012BEBD10125204684F88B
:104700002450FFF787FFEFE700F10806304600F07E
:1047100079F990F90430032BDBD1304600F072F9BF
:104720008368012BD5D130461D4600F069F9016838
:10473000334664228E690421B047022384F8243072
:10474000BCE7304600F05EF98368042BC1D1D4E7A2
:10475000A0F10800FFF7A8BF014B9869704700BFA0
:10476000A8000020094A131813F8011C0A2909D0CF
:10477000002110B40A241454597004485DF8044B05
:10478000FBF796BD0148FBF793BD00BFC4000020B6
:104790000FB400B583B00C4804AB53F8041B1A46A1
:1047A000019301F0E3FB0848FBF782FD08B1FFF736
:1047B000D9FF0549002201F5807000F087F803B0A9
:1047C0005DF804EB04B07047C40000200023024AE7
:1047D0000248194600F02EB8CC050020C401002084
:1047E000014800F01DB800BFC4010020054B1A6845
:1047F00022B95A681AB15A6801325A60704772B6C3
:10480000F9E700BF54020020044B1A682AB95A681D
:10481000013A5A605B6803B962B6704754020020DF
:10482000704700BF10B50446902100F038FE2046C6
:1048300010BD00BF70B5FF25002602290373057166
:104840000D4D8660056008D80C4B53F821605EB9A9
:1048500043F821000171826070BD05F10802084B28
:104860001121084800F00CFF05F10802064B1F213A
:10487000044800F005FF00BF586B00085C020020F0
:10488000946F0008AC6F000810700008802A70B5A3
:1048900010D800F10D0406461546204600F060FFD2
:1048A000B068436F202BFCD1AAB22146BDE870400E
:1048B000FDF72EBF024B5021024A034800F0E0FEF4
:1048C00018700008986B0008AC6F000870B50446BB
:1048D0000D461AB90846FBF7EBFC0246237B2BB1C9
:1048E00029462046BDE87040FFF7D0BF2946A068A2
:1048F00092B23223BDE87040FEF7B6B9DFF834D08B
:10490000002103E00C4B5B58435004310B480C4B27
:1049100042189A42F6D30B4A02E0002342F8043BC5
:10492000094B9A42F9D3FFF757FB00F0E5FEFEF77B
:10493000D5FA7047000005209072000800000020A2
:104940007400002074000020BC070020FEE7000077
:104950004368C8601A68184653691847407A704718
:1049600041727047036810B5DB690446C16098471F
:104970000023C0B2E360A0F10800B0FA80F0400963
:1049800010BD00BF70B5044610202368DD6800F03C
:1049900088FD064600F05CF820463146A847237A99
:1049A00003B970BD60680368BDE87040DB681847F4
:1049B00038B5114A0023044601724372C360C0E94E
:1049C000002389B100F0C2F903685B689847054687
:1049D000606000F0BBF903681B689847854201D10D
:1049E00000232372204638BD00F0B0F903681B682D
:1049F000984705466060ECE7D46B0008704700BF3D
:104A000040687047C0687047704700BF10B50446E3
:104A1000142100F044FD204610BD00BF70B40326F1
:104A2000044D0124067105600474C0E9021270BCD3
:104A3000704700BF4070000801207047704700BFFA
:104A400010B50446102100F02AFD204610BD00BF1D
:104A500010B4012404490022047101605DF8044B84
:104A6000C0E90222704700BF306C00080120704787
:104A7000704700BF10B50446102100F010FD20461D
:104A800010BD00BF30B402250024034A05718460C4
:104A9000C160026030BC7047446C00080120704760
:104AA000704700BF10B50446182100F0F8FC2046FE
:104AB00010BD00BF70B40426044D0261067105608C
:104AC0004261C0E9021370BC704700BF586C000817
:104AD000C268CB689A4201D00020704780688B681A
:104AE000C01AB0FA80F04009704700BF002070473C
:104AF0000020704700230371704700BF2DE9F0418B
:104B00000D4617461E4600F08BFA04683A463346B7
:104B100029466469A446BDE8F041604770B50C467B
:104B2000154600F07DFA03682A4621469B69BDE8D8
:104B30007040184708B5836B13B10123037108BD9A
:104B4000024B2221024A034800F09AFD4C700008F3
:104B5000646C000854700008C868036810B59B694D
:104B60000C46984700B910BDE06803681B69984778
:104B70000028F8D0E0680028F5D00368BDE81040B0
:104B80005B68184770B5044600250A4E083040F8A7
:104B9000086C257100F016FBA56300F04DFCA063C6
:104BA00008B1204670BD06F13002034B18210348BE
:104BB00000F066FD986C00084C7000085470000806
:104BC000044B10B5044640F8083B00F041FB20467A
:104BD00010BD00BF986C0008064B10B5044640F8A5
:104BE000083B00F035FB3C21204600F058FC2046F5
:104BF00010BD00BF986C000870B50446806B0D4670
:104C000003689B689847294604F1080000F040FBC0
:104C1000A06B0368BDE87040DB68184738B50379BE
:104C200083B1044600F10805284600F0C1FA10B12E
:104C30002379002BF8D1236820469B6A9847237973
:104C4000002BF1D1002038BDF8B500F1080504466D
:104C5000284600F0ADFA20B90646207918B9F8BD0B
:104C600098472079F8BDA06B03689B689847284651
:104C700000F0A0FB0746284600F0AAFBA06B0368E3
:104C8000DB689847002FECD0236839462046DB6A62
:104C9000984797F904300B4A01333B689B6808BF7B
:104CA00026719342DDD0384698470028D9D03B681A
:104CB0003846054A5B689342D2D1102100F0EFFBE1
:104CC0002079F8BD114100084941000804307047BF
:104CD00082B0002002A901E90C0002B0704700BFB9
:104CE00010B5074C2368DB0707D4201D00F0AEFB8E
:104CF00001230448236000F0E1FC034810BD00BF1D
:104D00006C020020B94D00087002002010B5074C5D
:104D1000074B04F10C00A360FFF734FF01230548A3
:104D2000A364BDE8104000F0C9BC00BF6C020020C5
:104D3000FC6C0008814D00080268034912688A4231
:104D400001D1043070471047CD4C000808B5044B22
:104D50009B6CDB0701D4FFF7D9FF024808BD00BFF9
:104D60006C02002074020020044B10B5044640F889
:104D7000043BFFF725FF204610BD00BFFC6C000878
:104D8000034B044A03F10C009A60FFF719BF00BF00
:104D90006C020020FC6C0008064B10B5044640F87D
:104DA000043BFFF70DFF4021204600F078FB204632
:104DB00010BD00BFFC6C0008014800F02DBB00BF17
:104DC00070020020416070474068704770B5084B22
:104DD00005460646036055F8080FA84205D004684A
:104DE00000F078FBAC422046F9D1304670BD00BFE0
:104DF0001C6D000838B5074B074A1D461A6055F868
:104E0000080FA84205D0046800F064FBAC422046BD
:104E1000F9D138BDB80200201C6D000870B50A4BEE
:104E200005460646036055F8080FA84205D00468F9
:104E300000F050FBAC422046F9D13046182100F07A
:104E40002EFB304670BD00BF1C6D0008436813B9CF
:104E50000A2213464260184600F0FEBA2DE9F041DE
:104E60000E46174698460446182000F01AFB4346A3
:104E700031463A460546FFF71DFE2368204629467F
:104E80001B6ABDE8F04118472DE9F04186B007469E
:104E90001346002268463E46FFF70CFE7869036819
:104EA0009B68984756F8084FB44269461FD0A568DA
:104EB0002846FFF70DFE08B3D4F800802046B04521
:104EC0001ED0D8F808106A694B6913444B613B69DE
:104ED000013B3B6100F018FB204600F0FBFA2B6819
:104EE000444628465B689847B4426946DFD17869F2
:104EF0000368DB68984706B0BDE8F0812468D3E713
:104F00003B69013B3B6100F0FFFA2046344600F06C
:104F1000E1FA002DC8D0E2E72DE9F0414468002C09
:104F200052D000F10807836806469F4244D070695A
:104F300003689B689847B36899684B691B1B002BF3
:104F40004B613BDC3269012A05D9B268126890686E
:104F50004269D31A4361C8680368DB6898473369BC
:104F6000B468013B2046336100F0CEFA204600F0E1
:104F7000B1FAB468BC4217D0A1684B6923B113E001
:104F8000A9682C464B697BB9C8680368DB689847F9
:104F9000336925682046013B336100F0B5FA2046AD
:104FA00000F098FABD42EBD1706900240368DB6819
:104FB0009847B368BB42BAD1BDE8F0817069036815
:104FC000BDE8F041DB681847024B6121024A034803
:104FD00000F056FBB8700008406D0008C87000086B
:104FE00038B5002103460B4D0446416043F8085B89
:104FF00001614161C0E9023300F01EFA606108B14D
:10500000204638BD05F15402034B1D21034800F032
:1050100037FB00BF1C6D00084C700008C87000080A
:1050200010B5074CA369DB0707D42046FFF7D8FF6C
:1050300001230448A36100F041FB014810BD00BFFB
:10504000B8020020F54D0008F8B5174604460C20BC
:105050000E4600F026FA3B6831460546836000F0B4
:105060004CFAA36828460133A360F8BDF0B500F1FF
:105070000806836883B007469E42019143D0406989
:1050800003689B689847BC68A6420FD0A368019943
:105090005D694B69AB4204DC13E0A2685569AB4221
:1050A0000FDD24685B1BB4424B61F6D101AA314687
:1050B0003046FFF7C9FF78690368DB68984703B09B
:1050C000F0BD9D4213D121688E4203D106E00968EC
:1050D0008E4225D08B685B69002BF8D001AA304640
:1050E000FFF7B2FF019A53695D1B5561E3E701AA1F
:1050F00021463046FFF7A8FFA26801995369496924
:105100005B1A5361D7E70C2000F0CBF9019B3146C5
:10511000836000F0F2F93B6901333B6103B0F0BDFD
:105120003146DBE710B50446FFF77AFF026807490E
:1051300092688A4204D1064B012244601A7010BD65
:1051400021469047024B01221A7010BDC54D000840
:10515000D4020020024B1B7803B17047FFF7E2BF77
:10516000D402002010B5FFF75BFF03681B69984766
:10517000FFF7ECFD03681B6898470368DB689847F6
:10518000FFF7E4FD03681B68984703689B6898472E
:1051900048B90446FFF7DAFD03681B6898470368BF
:1051A00021465B6A9847002010BD00BFFFF7DABFB9
:1051B000026A0069101AB0FA80F04009704700BF17
:1051C00000207047174B70B5044640F8043B00F0D0
:1051D0003DF9002308222020C4E90232C4E9043347
:1051E000C4E90633C4E90833C4E90A3300F059F9C5
:1051F000E56806464FF40070013DA66000F051F9E5
:1052000003466D08204603F50072636106EB8501D5
:1052100046F825306362E161E16223612362A261A5
:10522000A26270BDAC6D000870B50646006868B13A
:10523000756A74690435AC4206D254F8040B00F068
:1052400049F9A542F9D8306800F044F9304670BDFC
:10525000054B10B5044640F8083BFFF7E5FF201D5D
:1052600000F0DAF8204610BDAC6D0008074B10B511
:10527000044640F8083BFFF7D7FF201D00F0CCF8AC
:105280002046302100F00BF9204610BDAC6D00081F
:105290002DE9F04D051D04460E46284600F0C8F8DD
:1052A000A26A236A043A934209D003B11E60043310
:1052B0002846236200F0BEF80120BDE8F08DD4E955
:1052C0000202E76A3B1AA2EBA303012B16D94FF4A3
:1052D000007000F0E6F87860236A03B11E60E36AAC
:1052E00028465A68043302F50071C4E90822C4E96B
:1052F0000A1300F09FF80120BDE8F08DE169A7EBEB
:10530000010A4FEAAA0A0AF1010A0AF10108B2EBFE
:10531000480F33D8002A41D05200971CB7F1804F74
:1053200046D2B800A7EB080800F0BBF8E26AE169D2
:105330004FEA58080432834600EB88088A4203D0BB
:10534000521A404600F017FAA06800F0C3F8C4E90A
:1053500002B7D8F800206FF04043C4F81C805344D3
:1053600002F5007108EB8307C4E9052158F82330E2
:10537000E76203F50072C4E90932A8E7A2EB080866
:1053800004374FEA58087A1A00EB8808414507D9D4
:10539000B942DED0404600F0EEF9DAE70327C0E775
:1053A000B942D6D0C2EB8A00404400F0E4F9D0E71D
:1053B00000F0AFF838B5041D0546204600F038F877
:1053C0002B6920461C6800F035F8204638BD00BF28
:1053D00038B5051D0446284600F02AF8A26923695D
:1053E000043A934206D0043328462361BDE838408E
:1053F00000F020B8606900F06DF8E36928465A684B
:10540000043302F50071C4E90422C4E90613BDE8BF
:10541000384000F00FB800BF704700BF0120704750
:1054200010B50446042100F03AF8204610BD00BF34
:10543000FFF7DCB9FFF7E8B908B5042000F031F850
:10544000014B036008BD00BFD06D0008014B036035
:10545000704700BFD06D0008704700BF10B5012332
:10546000044C2360FFF7DCFD0368DB6998470023E9
:10547000236010BD5402002010B5FFF7D1FD026873
:105480000449D2688A4201D1406810BDBDE810408D
:10549000104700BFC94D000808B500F029F800F01A
:1054A00019B810B5002814BF04460124204600F0A6
:1054B00047F930B900F006F808B900F0D9F880478C
:1054C000F4E710BD024B1868BFF35B8F704700BF55
:1054D000D802002000F03CB908B5804700F0C8F8B9
:1054E000024B1868BFF35B8F704700BF0C000020B1
:1054F00008B5FFF7F5FFFFF7EFFF4B6843604B6818
:105500000160186048607047D0E9003213605A604B
:10551000704708B500F0ACF808B500F0A9F80FB472
:1055200080B582B000AF07F1100454F8045B284640
:10553000FAF7BEFE00F20E2323F00703ADEB030DD6
:1055400000F5007123462A4668467C6000F050F85A
:1055500000F08EF880B59CB000AF0E1A804669222C
:105560000E49381D00F0FCF806F1770323F007031D
:10557000ADEB030D6C466822391D751C204600F00A
:10558000EFF825443246414604F1680000F0E8F89F
:10559000002385F867302046FFF7BEFF3B71000807
:1055A000F8B500AF86B06D4605F10C04DFF83CE0BD
:1055B00023464FF00A0CB2FBFCF60CFB16221EF839
:1055C000022003F8012D3246002EF4D1E41A8C4259
:1055D00008D8C4F10C012246294400F0C1F8204645
:1055E000BD46F8BD4FF0FF34F9E700BF3071000849
:1055F00001392DE9F04106461546471804462A7838
:1056000092B3BC422CD2252A07D16A78732A09D0DA
:105610007A2A12D0252A00D101352A782270013544
:105620000134ECE7191D1B68013B13F8012FA2B1EF
:10563000BC4215D004F8012BF7E7AA78752AECD103
:105640001A68391B204603F10408FFF7A9FF002858
:1056500006DD044403354346D1E702350B46CEE769
:1056600021463046FFF776FF2270A01BBDE8F0818F
:1056700008B5062000F048FC0120FEF75FFC0000A2
:105680001FB51C46094B1B680546D86852B1084B2C
:105690000091CDE9013207492B46224600F01AF865
:1056A000FFF7E6FF044B1A46F2E700BF10000020A8
:1056B000A4710008B1710008DF71000800230146E1
:1056C0001A46184600F01CBD014B1868704700BF11
:1056D000100000200EB403B5014603AB054853F893
:1056E000042B0068019300F039F902B05DF804EB77
:1056F00003B070471000002070B50D4E0D4CA41B78
:10570000A4100025A54209D10B4E0C4C01F068F9FC
:10571000A41BA4100025A54205D170BD56F8253064
:1057200098470135EEE756F8253098470135F2E7FE
:105730008072000880720008807200088872000879
:10574000024B0146186800F085B800BF1000002029
:10575000024B0146186800F02FB800BF100000206F
:1057600010B5431E0A44914200D110BD11F8014BFF
:1057700003F8014FF7E7884210B501EB020307D8A1
:10578000421E99420AD011F8014B02F8014FF8E786
:105790008342F5D98118D21AD34200D110BD13F833
:1057A000014D01F8014DF7E702440346934200D151
:1057B000704703F8011BF9E738B50546002945D0C5
:1057C00051F8043C0C1F002BB8BFE41800F0DAFEBF
:1057D0001F4A1368104633B9636014602846BDE859
:1057E000384000F0D0BEA3420CD921686218934221
:1057F00004BF1A685B68636004BF521822600460CB
:10580000ECE713465A680AB1A242FAD91968581847
:10581000A0420BD120680144581882421960DDD1A2
:10582000106852685A6001441960D7E702D90C2306
:105830002B60D3E7206821188A4204BF11685268A0
:10584000626004BF091821605C60C7E738BD00BF13
:10585000DC02002070B5CD1C25F0030508350C2DA9
:1058600038BF0C25002D064601DBA94203D90C23C5
:105870003360002070BD00F085FE214A1468214687
:1058800091B9204C23681BB9304600F005FB20601D
:105890002946304600F000FB431C24D10C23336022
:1058A000304600F070FEE4E70B685B1B18D40B2B4E
:1058B0000FD90B60CD50CC18304600F064FE04F1D7
:1058C0000B00231D20F00700C31AD3D05A42E25028
:1058D000D0E78C424B6816BF636013600C46EBE761
:1058E0000C464968CCE7C41C24F00304A04205D050
:1058F000211A304600F0D0FA0130CFD02560DBE726
:10590000DC020020E00200209368013B002B10B471
:10591000936008DA9469A34201DB0A2903D15DF898
:10592000044B00F02DBB1368581C1060197008461A
:105930005DF8044B7047F8B506460F461446D51877
:10594000AC4201D1002007E03A4614F8011B304672
:10595000FFF7DAFF431CF3D1F8BD00002DE9F04F4B
:105960000C469DB017461D46064618B183690BB913
:1059700000F01AFD7C4B9C4258D17468A38918072B
:105980005ED52369002B5BD00023099320238DF87B
:10599000293030238DF82A3003954FF0010BB8469B
:1059A000454615F8013B0BB1252B54D1B8EB070A3E
:1059B0000BD053463A4621463046FFF7BCFF013034
:1059C00000F0C280099B5344099398F80030002BE3
:1059D00000F0BA8000234FF0FF32CDE90523049395
:1059E00007938DF853301A93A846052218F8011B27
:1059F0005E48FAF70DFC049B78BBD90644BF202211
:105A00008DF853201A0744BF2B228DF853202A7893
:105A10002A2A2AD0079AA84600200A25414611F8CA
:105A2000013B303B092B69D960B324E0504B9C42C9
:105A300001D1B468A2E74F4B9C4208BFF4689DE7D0
:105A40002146304600F0EEFA00289DD04FF0FF309E
:105A50001DB0BDE8F08FA846A2E7444A801A0BFAB1
:105A600000F0184304904546BEE7039A111D1268E2
:105A70000391002A01DB079204E0524243F0020343
:105A80000792049398F800302E2B0ED198F801302D
:105A90002A2B38D1039B1A1D1B680392002BB8BF19
:105AA0004FF0FF3308F102080593334D98F80010CA
:105AB00003222846FAF7ACFB40B14023401B03FA0F
:105AC00000F0049B034308F10108049398F80010C8
:105AD0002A488DF82810062208F10107FAF798FBEA
